S00B00004350552E7372656331
S11300000C945A000C946C000C946C000C946C00CE
S11300100C946C000C946C000C946C000C946C00AC
S11300200C946C000C946C000C946C000C946C009C
S11300300C946C000C946C000C946C000C946C008C
S11300400C946C000C946C000C946C000C946C007C
S11300500C946C000C946C000C946C000C946C006C
S11300600C946C000C946C00BF05090221023F0241
S11300707C02A002BF02E302F3020B032303450345
S113008067038903B003D703FE0320044204690411
S11300909004AE04CC04EA04310543050D051E05A5
S11300A0250556055F056C05790586059505A405A6
S11300B0B105B70511241FBECFEFD8E0DEBFCDBF19
S11300C025E0A0E0B1E001C01D92A738B207E1F736
S11300D00E949C060C947F090C9400008F929F92BE
S11300E0AF92BF92CF92DF92EF92FF920F931F9342
S11300F08F309105B9F030F48D30910549F00E97A9
S113010061F039C08231910591F04397A9F033C071
S1130110042B152B262B372B32C00423152326231F
S113012037232DC0042715272627372728C0040F77
S1130130151F261F371F23C06A017B01C901B8019F
S11301400E94BD089B01AC0160E070E080E89FE480
S11301500E9414084B015C01C701B6010E94BD084E
S1130160A50194010E9415080E948608022F132FEE
S1130170242F352F04C000E010E020E030E0C90156
S1130180B8011F910F91FF90EF90DF90CF90BF9037
S1130190AF909F908F90089514B817B81AB815B8F7
S11301A018B81BB808958F929F92AF92BF92CF92C6
S11301B0DF92EF92FF9260E070E0CB010E948A062A
S11301C04C01990FAA08BB0861E070E080E090E060
S11301D00E948A066C01990FEE08FF0826B1822F4F
S11301E090E0A0E0B0E0DC019927882723B130E05B
S11301F0322F2227A90160E070E0482B592B6A2B8B
S11302007B2B89B19A01AB01282B62E070E080E07E
S113021090E00E947406BB27AB2D9A2D892D84B9DA
S1130220C501AA27BB2787B98AB8BB27AF2D9E2D46
S11302308D2D85B9C701AA27BB2788B9CBB8FF90F4
S1130240EF90DF90CF90BF90AF909F908F900895E4
S113025010929A01109299011092910110929201B8
S113026010929301109294011092950110929601AC
S113027010929701109298011092900110928F01A0
S113028010928E0110928D0110928C0110928801AF
S11302901092890110928A0110928B0110928401AC
S11302A010928501109286011092870110928001AC
S11302B010928101109282011092830180E009C0A2
S11302C01092000110920101109202011092030198
S11302D08F5F8032A8F30E94A1060E945C060E94F0
S11302E093070E94CC000895CF92DF92EF92FF9281
S11302F00F931F93CF93DF93809184019091850195
S1130300A0918601B091870181309105A105B105C5
S113031089F130F00297A105B10509F46EC06DC4EE
S11303208091990190919A019C012F5F3F4F3093E6
S11303309A01209399010E947507209391013093AB
S113034092014093930150939401609395017093AB
S11303509601809397019093980181E090E0A0E04A
S1130360B0E08093840190938501A0938601B093BB
S1130370870145C4B0919101A0919201F09193013C
S1130380E0919401F090950110919601D09197011C
S1130390C09198012B2F3A2F4F2F5E2F6F2D712F65
S11303A08D2F9C2F00E30E94630920938E013093CC
S11303B08F012B2F3A2F4F2F5E2F6F2D712F8D2FE3
S11303C09C2F00E20E94630920938C0130938D01DD
S11303D0B0938801A0938901F0938A01E0938B0183
S11303E082E090E0A0E0B0E08093840190938501E6
S11303F0A0938601B093870102C4E0918E01F0912D
S11304008F01E632F10508F0B8C3EC5CFF4F0C94A1
S11304105B09E0918C01F0918D01FF27EE0FFF1F26
S1130420EE0FFF1FE050FF4F8091880190918901EA
S1130430A0918A01B0918B0180839183A283B383BD
S11304409EC3E0918C01F0918D01FF27A09188015A
S1130450B0E0AA0FBB1FAA0FBB1FA050BF4F8D91C6
S11304609D910D90BC91A02DEE0FFF1FEE0FFF1F6D
S1130470E050FF4F80839183A283B38380C3609154
S11304808C0170918D016230710521F561E070E09D
S113049080E090E00E948A06AC01990F660B770B0E
S11304A0E0918801F0E0EE0FFF1FEE0FFF1FE05018
S11304B0FF4F80819181A281B3819A01AB012827EA
S11304C039274A275B2761E070E080E090E00E94D2
S11304D0740655C3E0918801F0E0EE0FFF1FEE0FA4
S11304E0FF1FE050FF4F208131814281538180E022
S11304F090E00E94740643C3C0918C01D0918D0199
S1130500DD278091880190918901A0918A01B091A1
S11305108B01BC01CD017727882799270E948A0681
S1130520FE01EE0FFF1FEE0FFF1FE050FF4F092EDD
S1130530000CAA0BBB0B80839183A283B3831FC3DC
S1130540E0918801F0E0EE0FFF1FEE0FFF1FE05077
S1130550FF4F2081318142815381E0918C01F091E0
S11305608D01FF27EE0FFF1FEE0FFF1FE050FF4F1F
S113057060817181828193810E94740600C3C0915D
S11305808C01D0918D01DD27E0918801F0E0EE0F20
S1130590FF1FEE0FFF1FE050FF4F608171818281CA
S11305A093810E948A06FE01EE0FFF1FEE0FFF1FCC
S11305B0E050FF4F092E000CAA0BBB0B80839183E4
S11305C0A283B383DCC2E0918C01F0918D01FF27FB
S11305D0EE0FFF1FEE0FFF1FE050FF4F108211823E
S11305E012821382CCC2E0918C01F0918D01FF271D
S11305F0EE0FFF1FEE0FFF1FE050FF4F8081918130
S1130600A281B381880F991FAA1FBB1F8083918386
S1130610A283B383B4C2E0918C01F0918D01FF27D2
S1130620EE0FFF1FEE0FFF1FE050FF4F80819181FF
S1130630A281B381B695A795979587958083918379
S1130640A283B3839CC2C0918C01D0918D01DD271C
S1130650009188011091890120918A0130918B01C8
S1130660CC0FDD1FCC0FDD1FC050DF4F48815981F7
S11306706A817B81E09090018DE090E00E946E00A1
S1130680688379838A839B837AC2C0918C01D091D9
S11306908D01DD27009188011091890120918A0143
S11306A030918B01CC0FDD1FCC0FDD1FC050DF4F0D
S11306B0488159816A817B81E09090018EE090E0CD
S11306C00E946E00688379838A839B8358C2C09199
S11306D08C01D0918D01DD27009188011091890151
S11306E020918A0130918B01CC0FDD1FCC0FDD1FCF
S11306F0C050DF4F488159816A817B81E09090012D
S11307008FE090E00E946E00688379838A839B83E4
S113071036C2C0918C01D0918D01E0918801DD2712
S1130720F0E0EE0FFF1FEE0FFF1FE050FF4F0081C0
S1130730118122813381CC0FDD1FCC0FDD1FC0500E
S1130740DF4F488159816A817B81E09090018DE07F
S113075090E00E946E00688379838A839B830FC232
S1130760C0918C01D0918D01E0918801DD27F0E0EA
S1130770EE0FFF1FEE0FFF1FE050FF4F00811181AE
S113078022813381CC0FDD1FCC0FDD1FC050DF4F22
S1130790488159816A817B81E09090018EE090E0EC
S11307A00E946E00688379838A839B83E8C1C09129
S11307B08C01D0918D01E0918801DD27F0E0EE0FEE
S11307C0FF1FEE0FFF1FE050FF4F008111812281B8
S11307D03381CC0FDD1FCC0FDD1FC050DF4F4881AC
S11307E059816A817B81E09090018FE090E00E94C2
S11307F06E00688379838A839B83C1C1C0918C0115
S1130800D0918D01DD2700918801109189012091FB
S11308108A0130918B01CC0FDD1FCC0FDD1FC0503E
S1130820DF4F488159816A817B81E090900182E1A8
S113083090E00E946E00688379838A839B839FC1C2
S1130840C0918C01D0918D01DD2700918801109118
S1130850890120918A0130918B01CC0FDD1FCC0FCF
S1130860DD1FC050DF4F488159816A817B81E09050
S1130870900183E190E00E946E00688379838A830B
S11308809B837DC1C0918C01D0918D01E091880141
S1130890DD27F0E0EE0FFF1FEE0FFF1FE050FF4FCC
S11308A00081118122813381CC0FDD1FCC0FDD1F2C
S11308B0C050DF4F488159816A817B81E09090016B
S11308C082E190E00E946E00688379838A839B832F
S11308D056C1C0918C01D0918D01E0918801DD2732
S11308E0F0E0EE0FFF1FEE0FFF1FE050FF4F0081FF
S11308F0118122813381CC0FDD1FCC0FDD1FC0504D
S1130900DF4F488159816A817B81E090900183E1C6
S113091090E00E946E00688379838A839B832FC151
S1130920C0918C01D0918D01DD27CC0FDD1FCC0F40
S1130930DD1FC050DF4F488159816A817B81E0907F
S1130940900101E010E020E030E082E190E00E94BC
S11309506E00688379838A839B8311C1C0918C0163
S1130960D0918D01DD27CC0FDD1FCC0FDD1FC050D2
S1130970DF4F488159816A817B81E090900101E0D9
S113098010E020E030E083E190E00E946E00688394
S113099079838A839B83F3C0E0918C01F0918D016C
S11309A0FF27EE0FFF1FEE0FFF1FE050FF4F4081A8
S11309B05181628173810091880110918901209194
S11309C08A0130918B01E090900183E190E00E94D4
S11309D06E00D5C0E0918801F0E0EE0FFF1FEE0F2E
S11309E0FF1FE050FF4F0081118122813381E0918C
S11309F08C01F0918D01FF27EE0FFF1FEE0FFF1FFB
S1130A00E050FF4F4081518162817381E0909001F9
S1130A1083E190E00E946E00B2C0609199017091F0
S1130A209A0180E090E00E94AF0780918C01909140
S1130A308D0190939A0180939901A1C00E94E307CC
S1130A4070939A01609399019AC00E94E30770938E
S1130A509A01609399018091900180628093900142
S1130A608EC0E0918C01F0918D01FF27EE0FFF1FE6
S1130A70EE0FFF1FE050FF4F6081718182819381EF
S1130A800E94AF077CC0C0918C01D0918D01DD27FD
S1130A900E94E307FE01EE0FFF1FEE0FFF1FE05061
S1130AA0FF4F608371838283938369C080918C013B
S1130AB090918D0190939A018093990160C08091E7
S1130AC0900182FF5CC080918C0190918D01909384
S1130AD09A018093990153C08091900182FD4FC087
S1130AE080918C0190918D0190939A01809399014A
S1130AF046C08091900184FD42C080918C01909108
S1130B008D0190939A018093990139C0809190014D
S1130B1084FD35C082FD33C080918C0190918D019C
S1130B2090939A01809399012AC08091900184FD49
S1130B3002C082FF24C080918C0190918D0190931A
S1130B409A01809399011BC08091900184FF17C082
S1130B5080918C0190918D0190939A0180939901D9
S1130B600EC08091900180628093900108C08091B2
S1130B7090018F7D8093900102C00E94CC008091EF
S1130B80900185FF31C064E070E080E090E00E9455
S1130B908A06EC016C01990FEE08FF0863E070E02F
S1130BA080E090E00E948A06C0FF1EC080FF1CC047
S1130BB0A70196012E7F64E070E080E090E00E943F
S1130BC074066091990170919A0180E090E00E940E
S1130BD0AF0782E090E090939A018093990180910D
S1130BE090018F7D80939001109284011092850171
S1130BF0109286011092870102C00E94CC000E94CC
S1130C00D30062E070E080E090E00E948A066C010C
S1130C10990FEE08FF0810E03CC0C1E0D0E0012EBF
S1130C2002C0CC0FDD1F0A94E2F79E012C213D2166
S1130C3091E0232B09F490E04091800150918101CF
S1130C4060918201709183014C235D2381E0452BE7
S1130C5009F480E09817E1F065E070E080E090E04E
S1130C600E948A068C239D23892B91F064E070E016
S1130C7080E090E00E948A0681609C01990F440BF9
S1130C80550B64E070E080E090E00E94740603C0BD
S1130C901F5F103210F2C0928001D0928101E09265
S1130CA08201F0928301DF91CF911F910F91FF9008
S1130CB0EF90DF90CF90089580E090E0DC010EC0CB
S1130CC0FC01EE0FFF1FEE0FFF1FE556FE4F1082D3
S1130CD01182128213820196A11DB11D84369105E1
S1130CE0A105B10568F30895643671058105910580
S1130CF070F4660F771F660F771FFB01E556FE4FF2
S1130D00208331834283538380E090E0089581E01F
S1130D1090E00895643671058105910550F4660FDD
S1130D20771F660F771FFB01E556FE4F8081918187
S1130D30089580E090E008950E9428010E947401C3
S1130D40FDCF80912B038111CFC0ECE2F3E0108240
S1130D5011821282138264E0648315828DE186839A
S1130D6017821086118612861386148615861686B7
S1130D701786108A118A128A138A9FE0948B158A27
S1130D80868B178A108E118E128E138E148E158EEA
S1130D90168E178E10A211A212A213A296E094A38B
S1130DA015A29AE196A317A210A611A612A613A63D
S1130DB075E074A715A686A717A610AA81E081ABD3
S1130DC012AA13AA30E134AB15AA86AB17AA30AF26
S1130DD011AE12AE13AE14AE15AE93E096AF17AECD
S1130DE0ECE6F3E0108250E251831282138241E177
S1130DF04483158286831782E4E7F3E040831182FB
S1130E00128213828483158296831782ECE7F3E0BF
S1130E1010821182128213821482158224E22683A4
S1130E201782E4E8F3E0808311821282138228E1BE
S1130E302483158286831782ECE8F3E020831182F1
S1130E40128213829483158296831782E4E9F3E075
S1130E5040831182128213827483158296831782CF
S1130E60ECE9F3E01082118212821382148215825B
S1130E704BE146831782E4EAF3E042E040831182C7
S1130E80128213822483158266831782ECEAF3E0CC
S1130E901082518312821382248315822BE02683CD
S1130EA01782E4EBF3E0108211821282138223E1B1
S1130EB0248315822EE126831782ECEBF3E0308342
S1130EC01182128213824483158296831782E4EC82
S1130ED0F3E01082118212821382148215829CE143
S1130EE09683178280932B0308958931910590F49A
S1130EF0880F991F880F991F880F991FFC01E45DC3
S1130F00FC4F2081318142815381648175818681C6
S1130F109781089520E030E040E050E060E070E028
S1130F2080E090E0089580E090E00CC0FC01EE0FBA
S1130F30FF1FEE0FFF1FE950FC4F10821182128237
S1130F40138201968436910588F383E690E09093AA
S1130F50F6038093F50381E08093F40308954091B0
S1130F60F5035091F6034115510551F12091F40315
S1130F70222389F09A01220F331F220F331FF90114
S1130F80E950FC4F60837183828393831092F4034E
S1130F9080E090E008959A01215031093093F603DE
S1130FA02093F503220F331F220F331FF901E95059
S1130FB0FC4F608371838283938380E090E0089583
S1130FC081E090E008958091F403811129C080911B
S1130FD0F5039091F6038336910598F49C012F5FF5
S1130FE03F4F3093F6032093F503880F991F880F22
S1130FF0991FFC01E950FC4F6081718182819381CA
S1131000089521E02093F403880F991F880F991FF6
S1131010FC01E950FC4F60817181828193810895C4
S113102060E070E0CB0108955058BB27AA270E94C6
S11310302C080C9421090E94130938F00E941A0903
S113104020F039F49F3F19F426F40C9400090EF4AF
S1131050E095E7FB0C94FA08E92F0E94320958F353
S1131060BA17620773078407950720F079F4A6F589
S11310700C9454090EF4E0950B2EBA2FA02D0B01FD
S1131080B90190010C01CA01A0011124FF27591BC9
S113109099F0593F50F4503E68F11A16F040A22FCF
S11310A0232F342F4427585FF3CF46953795279540
S11310B0A795F0405395C9F77EF41F16BA0B620B3F
S11310C0730B840BBAF09150A1F0FF0FBB1F661F86
S11310D0771F881FC2F70EC0BA0F621F731F841FC9
S11310E048F4879577956795B795F7959E3F08F0EF
S11310F0B0CF9395880F08F09927EE0F97958795B1
S11311000895BEE304D008F490E80895BFE32227CD
S11311103327A9010E943A0960F19F5748F1B91792
S113112040F1BFE3B91B9927B8503AF4660F771F13
S1131130881F991FB395D2F316C0B8504AF0232FD5
S1131140342F452F562F672F782F8827B850BAF79A
S1131150B85F49F086957795679557954795379584
S11311602795BA95B9F716F40E940309889408954F
S1131170889460E070E0CB010895E89409C097FB7F
S11311803EF490958095709561957F4F8F4F9F4F5A
S11311909923A9F0F92F96E9BB279395F69587959E
S11311A077956795B795F111F8CFFAF4BB0F11F461
S11311B060FF1BC06F5F7F4F8F4F9F4F16C0882308
S11311C011F096E911C0772321F09EE8872F762F3E
S11311D005C0662371F096E8862F70E060E02AF07F
S11311E09A95660F771F881FDAF7880F969587956B
S11311F097F9089597F99F6780E870E060E0089593
S11312009FEF80EC0895909580957095609550952A
S11312104095309521953F4F4F4F5F4F6F4F7F4F14
S11312208F4F9F4F089500240A9416161706180628
S11312300906089500240A941216130614060506D6
S11312400895092E0394000C11F4882352F0BB0F67
S113125040F4BF2B11F460FF04C06F5F7F4F8F4FCA
S11312609F4F089557FD9058440F551F59F05F3F05
S113127071F04795880F97FB991F61F09F3F79F0B4
S113128087950895121613061406551FF2CF469536
S1131290F1DF08C0161617061806991FF1CF8695B8
S11312A07105610508940895E894BB27662777279C
S11312B0CB0197F90895EE0FFF1F0590F491E02DEF
S11312C0099497FB10F8169400080F93083098F0CF
S11312D00850232F342F452F562F672F782F892F0F
S11312E0902DF4CF059497958795779567955795A5
S11312F04795379527950A95AAF70F910895F8947D
S1051300FFCF19
S9030000FC
